{
  "_format": "hh-sol-artifact-1",
  "contractName": "CreditScore",
  "sourceName": "contracts/CreditScore.sol",
  "abi": [
    {
      "anonymous": false,
      "inputs": [
        {
          "indexed": true,
          "internalType": "string",
          "name": "userSlug",
          "type": "string"
        },
        {
          "indexed": false,
          "internalType": "address[]",
          "name": "walletAddresses",
          "type": "address[]"
        },
        {
          "indexed": false,
          "internalType": "uint256",
          "name": "score",
          "type": "uint256"
        },
        {
          "indexed": false,
          "internalType": "uint256",
          "name": "timestamp",
          "type": "uint256"
        }
      ],
      "name": "ScoreUpdated",
      "type": "event"
    },
    {
      "inputs": [
        {
          "internalType": "string",
          "name": "",
          "type": "string"
        }
      ],
      "name": "activeScore",
      "outputs": [
        {
          "internalType": "uint256",
          "name": "score",
          "type": "uint256"
        },
        {
          "internalType": "uint256",
          "name": "timestamp",
          "type": "uint256"
        }
      ],
      "stateMutability": "view",
      "type": "function"
    },
    {
      "inputs": [
        {
          "internalType": "string",
          "name": "_userSlug",
          "type": "string"
        }
      ],
      "name": "getActiveScore",
      "outputs": [
        {
          "components": [
            {
              "internalType": "address[]",
              "name": "walletAddresses",
              "type": "address[]"
            },
            {
              "internalType": "uint256",
              "name": "score",
              "type": "uint256"
            },
            {
              "internalType": "uint256",
              "name": "timestamp",
              "type": "uint256"
            }
          ],
          "internalType": "struct CreditScore.ScoreRecord",
          "name": "",
          "type": "tuple"
        }
      ],
      "stateMutability": "view",
      "type": "function"
    },
    {
      "inputs": [
        {
          "internalType": "string",
          "name": "_userSlug",
          "type": "string"
        }
      ],
      "name": "getScoreHistory",
      "outputs": [
        {
          "components": [
            {
              "internalType": "address[]",
              "name": "walletAddresses",
              "type": "address[]"
            },
            {
              "internalType": "uint256",
              "name": "score",
              "type": "uint256"
            },
            {
              "internalType": "uint256",
              "name": "timestamp",
              "type": "uint256"
            }
          ],
          "internalType": "struct CreditScore.ScoreRecord[]",
          "name": "",
          "type": "tuple[]"
        }
      ],
      "stateMutability": "view",
      "type": "function"
    },
    {
      "inputs": [
        {
          "internalType": "string",
          "name": "_userSlug",
          "type": "string"
        },
        {
          "internalType": "address[]",
          "name": "_walletAddresses",
          "type": "address[]"
        },
        {
          "internalType": "uint256",
          "name": "_score",
          "type": "uint256"
        },
        {
          "internalType": "uint256",
          "name": "_timestamp",
          "type": "uint256"
        }
      ],
      "name": "registerScore",
      "outputs": [],
      "stateMutability": "nonpayable",
      "type": "function"
    },
    {
      "inputs": [
        {
          "internalType": "string",
          "name": "",
          "type": "string"
        },
        {
          "internalType": "uint256",
          "name": "",
          "type": "uint256"
        }
      ],
      "name": "scoreHistory",
      "outputs": [
        {
          "internalType": "uint256",
          "name": "score",
          "type": "uint256"
        },
        {
          "internalType": "uint256",
          "name": "timestamp",
          "type": "uint256"
        }
      ],
      "stateMutability": "view",
      "type": "function"
    }
  ],
  "bytecode": "0x6080604052348015600f57600080fd5b50610eb68061001f6000396000f3fe608060405234801561001057600080fd5b50600436106100575760003560e01c80632619b33b1461005c57806326944dbd1461008c578063550e2c55146100bd5780637d7f011c146100d9578063b692a4d61461010a575b600080fd5b61007660048036038101906100719190610783565b61013a565b6040516100839190610925565b60405180910390f35b6100a660048036038101906100a19190610783565b610214565b6040516100b4929190610956565b60405180910390f35b6100d760048036038101906100d29190610a9f565b61024e565b005b6100f360048036038101906100ee9190610b3e565b6103eb565b604051610101929190610956565b60405180910390f35b610124600480360381019061011f9190610783565b610442565b6040516101319190610cac565b60405180910390f35b610142610561565b6001826040516101529190610d3f565b9081526020016040518091039020604051806060016040529081600082018054806020026020016040519081016040528092919081815260200182805480156101f057602002820191906000526020600020905b8160009054906101000a900473ffffffffffffffffffffffffffffffffffffffff1673ffffffffffffffffffffffffffffffffffffffff16815260200190600101908083116101a6575b50505050508152602001600182015481526020016002820154815250509050919050565b6001818051602081018201805184825260208301602085012081835280955050505050506000915090508060010154908060020154905082565b6000835111610292576040517f08c379a000000000000000000000000000000000000000000000000000000000815260040161028990610db3565b60405180910390fd5b6000846040516102a29190610d3f565b908152602001604051809103902060405180606001604052808581526020018481526020018381525090806001815401808255809150506001900390600052602060002090600302016000909190919091506000820151816000019080519060200190610310929190610582565b50602082015181600101556040820151816002015550506040518060600160405280848152602001838152602001828152506001856040516103529190610d3f565b9081526020016040518091039020600082015181600001908051906020019061037c929190610582565b506020820151816001015560408201518160020155905050836040516103a29190610d3f565b60405180910390207f8db4d8b32ea2a3708f9dcf7b6f4f9c9e20c42f6684a10e873c0e7f529588760e8484846040516103dd93929190610e42565b60405180910390a250505050565b600082805160208101820180518482526020830160208501208183528095505050505050818154811061041d57600080fd5b9060005260206000209060030201600091509150508060010154908060020154905082565b60606000826040516104549190610d3f565b9081526020016040518091039020805480602002602001604051908101604052809291908181526020016000905b8282101561055657838290600052602060002090600302016040518060600160405290816000820180548060200260200160405190810160405280929190818152602001828054801561052a57602002820191906000526020600020905b8160009054906101000a900473ffffffffffffffffffffffffffffffffffffffff1673ffffffffffffffffffffffffffffffffffffffff16815260200190600101908083116104e0575b505050505081526020016001820154815260200160028201548152505081526020019060010190610482565b505050509050919050565b60405180606001604052806060815260200160008152602001600081525090565b8280548282559060005260206000209081019282156105fb579160200282015b828111156105fa5782518260006101000a81548173ffffffffffffffffffffffffffffffffffffffff021916908373ffffffffffffffffffffffffffffffffffffffff160217905550916020019190600101906105a2565b5b509050610608919061060c565b5090565b5b8082111561062557600081600090555060010161060d565b5090565b6000604051905090565b600080fd5b600080fd5b600080fd5b600080fd5b6000601f19601f8301169050919050565b7f4e487b7100000000000000000000000000000000000000000000000000000000600052604160045260246000fd5b61069082610647565b810181811067ffffffffffffffff821117156106af576106ae610658565b5b80604052505050565b60006106c2610629565b90506106ce8282610687565b919050565b600067ffffffffffffffff8211156106ee576106ed610658565b5b6106f782610647565b9050602081019050919050565b82818337600083830152505050565b6000610726610721846106d3565b6106b8565b90508281526020810184848401111561074257610741610642565b5b61074d848285610704565b509392505050565b600082601f83011261076a5761076961063d565b5b813561077a848260208601610713565b91505092915050565b60006020828403121561079957610798610633565b5b600082013567ffffffffffffffff8111156107b7576107b6610638565b5b6107c384828501610755565b91505092915050565b600081519050919050565b600082825260208201905092915050565b6000819050602082019050919050565b600073ffffffffffffffffffffffffffffffffffffffff82169050919050565b6000610823826107f8565b9050919050565b61083381610818565b82525050565b6000610845838361082a565b60208301905092915050565b6000602082019050919050565b6000610869826107cc565b61087381856107d7565b935061087e836107e8565b8060005b838110156108af5781516108968882610839565b97506108a183610851565b925050600181019050610882565b5085935050505092915050565b6000819050919050565b6108cf816108bc565b82525050565b600060608301600083015184820360008601526108f2828261085e565b915050602083015161090760208601826108c6565b50604083015161091a60408601826108c6565b508091505092915050565b6000602082019050818103600083015261093f81846108d5565b905092915050565b610950816108bc565b82525050565b600060408201905061096b6000830185610947565b6109786020830184610947565b9392505050565b600067ffffffffffffffff82111561099a57610999610658565b5b602082029050602081019050919050565b600080fd5b6109b981610818565b81146109c457600080fd5b50565b6000813590506109d6816109b0565b92915050565b60006109ef6109ea8461097f565b6106b8565b90508083825260208201905060208402830185811115610a1257610a116109ab565b5b835b81811015610a3b5780610a2788826109c7565b845260208401935050602081019050610a14565b5050509392505050565b600082601f830112610a5a57610a5961063d565b5b8135610a6a8482602086016109dc565b91505092915050565b610a7c816108bc565b8114610a8757600080fd5b50565b600081359050610a9981610a73565b92915050565b60008060008060808587031215610ab957610ab8610633565b5b600085013567ffffffffffffffff811115610ad757610ad6610638565b5b610ae387828801610755565b945050602085013567ffffffffffffffff811115610b0457610b03610638565b5b610b1087828801610a45565b9350506040610b2187828801610a8a565b9250506060610b3287828801610a8a565b91505092959194509250565b60008060408385031215610b5557610b54610633565b5b600083013567ffffffffffffffff811115610b7357610b72610638565b5b610b7f85828601610755565b9250506020610b9085828601610a8a565b9150509250929050565b600081519050919050565b600082825260208201905092915050565b6000819050602082019050919050565b60006060830160008301518482036000860152610be3828261085e565b9150506020830151610bf860208601826108c6565b506040830151610c0b60408601826108c6565b508091505092915050565b6000610c228383610bc6565b905092915050565b6000602082019050919050565b6000610c4282610b9a565b610c4c8185610ba5565b935083602082028501610c5e85610bb6565b8060005b85811015610c9a5784840389528151610c7b8582610c16565b9450610c8683610c2a565b925060208a01995050600181019050610c62565b50829750879550505050505092915050565b60006020820190508181036000830152610cc68184610c37565b905092915050565b600081519050919050565b600081905092915050565b60005b83811015610d02578082015181840152602081019050610ce7565b60008484015250505050565b6000610d1982610cce565b610d238185610cd9565b9350610d33818560208601610ce4565b80840191505092915050565b6000610d4b8284610d0e565b915081905092915050565b600082825260208201905092915050565b7f4e6f2077616c6c6574732070726f766964656400000000000000000000000000600082015250565b6000610d9d601383610d56565b9150610da882610d67565b602082019050919050565b60006020820190508181036000830152610dcc81610d90565b9050919050565b600082825260208201905092915050565b6000610def826107cc565b610df98185610dd3565b9350610e04836107e8565b8060005b83811015610e35578151610e1c8882610839565b9750610e2783610851565b925050600181019050610e08565b5085935050505092915050565b60006060820190508181036000830152610e5c8186610de4565b9050610e6b6020830185610947565b610e786040830184610947565b94935050505056fea264697066735822122077b5a17200ced827351aef686cce66dd43d59786c082ed4768c3e106b4cfabef64736f6c634300081b0033",
  "linkReferences": {},
  "deployedLinkReferences": {}
}